{
  "_format": "hh-sol-artifact-1",
  "contractName": "BuyMeACoffee",
  "sourceName": "contracts/BuyMeACoffee.sol",
  "abi": [
    {
      "inputs": [],
      "stateMutability": "nonpayable",
      "type": "constructor"
    },
    {
      "anonymous": false,
      "inputs": [
        {
          "indexed": false,
          "internalType": "address",
          "name": "senderAddress",
          "type": "address"
        },
        {
          "indexed": false,
          "internalType": "string",
          "name": "name",
          "type": "string"
        },
        {
          "indexed": false,
          "internalType": "string",
          "name": "message",
          "type": "string"
        },
        {
          "indexed": false,
          "internalType": "uint256",
          "name": "timestamp",
          "type": "uint256"
        }
      ],
      "name": "NewMemo",
      "type": "event"
    },
    {
      "inputs": [
        {
          "internalType": "string",
          "name": "_name",
          "type": "string"
        },
        {
          "internalType": "string",
          "name": "_message",
          "type": "string"
        }
      ],
      "name": "buyCoffee",
      "outputs": [],
      "stateMutability": "payable",
      "type": "function"
    },
    {
      "inputs": [],
      "name": "getMemos",
      "outputs": [
        {
          "components": [
            {
              "internalType": "address",
              "name": "senderAddress",
              "type": "address"
            },
            {
              "internalType": "string",
              "name": "name",
              "type": "string"
            },
            {
              "internalType": "string",
              "name": "message",
              "type": "string"
            },
            {
              "internalType": "uint256",
              "name": "timestamp",
              "type": "uint256"
            }
          ],
          "internalType": "struct BuyMeACoffee.Memo[]",
          "name": "",
          "type": "tuple[]"
        }
      ],
      "stateMutability": "view",
      "type": "function"
    },
    {
      "inputs": [],
      "name": "withdrawTips",
      "outputs": [],
      "stateMutability": "nonpayable",
      "type": "function"
    }
  ],
  "bytecode": "0x608060405234801561001057600080fd5b50336000806101000a81548173ffffffffffffffffffffffffffffffffffffffff021916908373ffffffffffffffffffffffffffffffffffffffff160217905550610c73806100606000396000f3fe6080604052600436106100345760003560e01c8063204206e1146100395780633aaa74b214610055578063865c51721461006c575b600080fd5b610053600480360381019061004e9190610599565b610097565b005b34801561006157600080fd5b5061006a6101fc565b005b34801561007857600080fd5b5061008161025c565b60405161008e9190610816565b60405180910390f35b600034116100da576040517f08c379a00000000000000000000000000000000000000000000000000000000081526004016100d190610895565b60405180910390fd5b600160405180608001604052803373ffffffffffffffffffffffffffffffffffffffff16815260200184815260200183815260200142815250908060018154018082558091505060019003906000526020600020906004020160009091909190915060008201518160000160006101000a81548173ffffffffffffffffffffffffffffffffffffffff021916908373ffffffffffffffffffffffffffffffffffffffff16021790555060208201518160010190816101989190610ac1565b5060408201518160020190816101ae9190610ac1565b506060820151816003015550507fd42e89b4c5fbb2f2d060a3f55bf87f221232809d3b09e1833bd8f7e032275580338383426040516101f09493929190610bea565b60405180910390a15050565b60008054906101000a900473ffffffffffffffffffffffffffffffffffffffff1673ffffffffffffffffffffffffffffffffffffffff166108fc479081150290604051600060405180830381858888f1935050505061025a57600080fd5b565b60606001805480602002602001604051908101604052809291908181526020016000905b8282101561043657838290600052602060002090600402016040518060800160405290816000820160009054906101000a900473ffffffffffffffffffffffffffffffffffffffff1673ffffffffffffffffffffffffffffffffffffffff1673ffffffffffffffffffffffffffffffffffffffff168152602001600182018054610309906108e4565b80601f0160208091040260200160405190810160405280929190818152602001828054610335906108e4565b80156103825780601f1061035757610100808354040283529160200191610382565b820191906000526020600020905b81548152906001019060200180831161036557829003601f168201915b5050505050815260200160028201805461039b906108e4565b80601f01602080910402602001604051908101604052809291908181526020018280546103c7906108e4565b80156104145780601f106103e957610100808354040283529160200191610414565b820191906000526020600020905b8154815290600101906020018083116103f757829003601f168201915b5050505050815260200160038201548152505081526020019060010190610280565b50505050905090565b6000604051905090565b600080fd5b600080fd5b600080fd5b600080fd5b6000601f19601f8301169050919050565b7f4e487b7100000000000000000000000000000000000000000000000000000000600052604160045260246000fd5b6104a68261045d565b810181811067ffffffffffffffff821117156104c5576104c461046e565b5b80604052505050565b60006104d861043f565b90506104e4828261049d565b919050565b600067ffffffffffffffff8211156105045761050361046e565b5b61050d8261045d565b9050602081019050919050565b82818337600083830152505050565b600061053c610537846104e9565b6104ce565b90508281526020810184848401111561055857610557610458565b5b61056384828561051a565b509392505050565b600082601f8301126105805761057f610453565b5b8135610590848260208601610529565b91505092915050565b600080604083850312156105b0576105af610449565b5b600083013567ffffffffffffffff8111156105ce576105cd61044e565b5b6105da8582860161056b565b925050602083013567ffffffffffffffff8111156105fb576105fa61044e565b5b6106078582860161056b565b9150509250929050565b600081519050919050565b600082825260208201905092915050565b6000819050602082019050919050565b600073ffffffffffffffffffffffffffffffffffffffff82169050919050565b60006106688261063d565b9050919050565b6106788161065d565b82525050565b600081519050919050565b600082825260208201905092915050565b60005b838110156106b857808201518184015260208101905061069d565b60008484015250505050565b60006106cf8261067e565b6106d98185610689565b93506106e981856020860161069a565b6106f28161045d565b840191505092915050565b6000819050919050565b610710816106fd565b82525050565b600060808301600083015161072e600086018261066f565b506020830151848203602086015261074682826106c4565b9150506040830151848203604086015261076082826106c4565b91505060608301516107756060860182610707565b508091505092915050565b600061078c8383610716565b905092915050565b6000602082019050919050565b60006107ac82610611565b6107b6818561061c565b9350836020820285016107c88561062d565b8060005b8581101561080457848403895281516107e58582610780565b94506107f083610794565b925060208a019950506001810190506107cc565b50829750879550505050505092915050565b6000602082019050818103600083015261083081846107a1565b905092915050565b600082825260208201905092915050565b7f63616e27742062757920636f6666656520666f72206672656521000000000000600082015250565b600061087f601a83610838565b915061088a82610849565b602082019050919050565b600060208201905081810360008301526108ae81610872565b9050919050565b7f4e487b7100000000000000000000000000000000000000000000000000000000600052602260045260246000fd5b600060028204905060018216806108fc57607f821691505b60208210810361090f5761090e6108b5565b5b50919050565b60008190508160005260206000209050919050565b60006020601f8301049050919050565b600082821b905092915050565b6000600883026109777fffffffffffffffffffffffffffffffffffffffffffffffffffffffffffffffff8261093a565b610981868361093a565b95508019841693508086168417925050509392505050565b6000819050919050565b60006109be6109b96109b4846106fd565b610999565b6106fd565b9050919050565b6000819050919050565b6109d8836109a3565b6109ec6109e4826109c5565b848454610947565b825550505050565b600090565b610a016109f4565b610a0c8184846109cf565b505050565b5b81811015610a3057610a256000826109f9565b600181019050610a12565b5050565b601f821115610a7557610a4681610915565b610a4f8461092a565b81016020851015610a5e578190505b610a72610a6a8561092a565b830182610a11565b50505b505050565b600082821c905092915050565b6000610a9860001984600802610a7a565b1980831691505092915050565b6000610ab18383610a87565b9150826002028217905092915050565b610aca8261067e565b67ffffffffffffffff811115610ae357610ae261046e565b5b610aed82546108e4565b610af8828285610a34565b600060209050601f831160018114610b2b5760008415610b19578287015190505b610b238582610aa5565b865550610b8b565b601f198416610b3986610915565b60005b82811015610b6157848901518255600182019150602085019450602081019050610b3c565b86831015610b7e5784890151610b7a601f891682610a87565b8355505b6001600288020188555050505b505050505050565b610b9c8161065d565b82525050565b6000610bad8261067e565b610bb78185610838565b9350610bc781856020860161069a565b610bd08161045d565b840191505092915050565b610be4816106fd565b82525050565b6000608082019050610bff6000830187610b93565b8181036020830152610c118186610ba2565b90508181036040830152610c258185610ba2565b9050610c346060830184610bdb565b9594505050505056fea2646970667358221220e774fecea8efe5d2f1a9fb4df89c111b17f282acb0d7b1466d23afea2a80123664736f6c63430008110033",
  "linkReferences": {},
  "deployedLinkReferences": {}
}